:020000040800F2
:1000000098130020E5160008ED160008EF1600080A
:10001000F1160008F3160008F516000800000000AD
:10002000000000000000000000000000F7160008BB
:10003000F916000800000000FB160008FD16000875
:10004000FF160008FF160008FF1600080000000059
:1000500000000000FF16000869070008FF160008EE
:10006000FF16000800000000FF160008FF16000839
:10007000FF1600080000000095090008B9090008F3
:10008000F9090008FF16000800000000FF1600082C
:10009000FF16000800000000000000000000000043
:1000A000000000000000000000000000FF16000833
:1000B000FF160008FF160008FF160008FF160008CC
:1000C00000F002F800F03EF80AA090E8000C82442C
:1000D0008344AAF10107DA4501D100F033F8AFF209
:1000E000090EBAE80F0013F0010F18BFFB1A43F016
:1000F000010318474C3E00006C3E0000103A24BF3C
:1001000078C878C1FAD8520724BF30C830C144BF7C
:1001100004680C60704700000023002400250026BE
:10012000103A28BF78C1FBD8520728BF30C148BF5A
:100130000B6070471FB59DE8030002F0A1FD1FBDD5
:1001400010B510BD02F0F8FD1146FFF7F3FF01F006
:100150009FF802F016FE03B4FFF7F2FF03BC02F0B3
:1001600047FE000010B50446204601F08CFB01F06C
:10017000F8FB00BF01F010FC00F004000028F9D0EB
:1001800001F0FDFBC0F30B0010BD2DE9F047044664
:1001900094F8D22004F10A0030F81200D4F8D410F8
:1001A000081AC4F8D4002068FFF7DCFF81B294F885
:1001B000D22004F10A0020F8121094F8D22030F86E
:1001C0001200D4F8D4100844C4F8D4006421D4F840
:1001D000D400B0FBF1FA504603F078FC814603F0FE
:1001E000E5FA07460B4A0C4B03F0B6F8054602F059
:1001F00025FE606094F8D200632805DA94F8D200F6
:10020000401C84F8D20002E0002084F8D20060682C
:10021000BDE8F087B4D934E70C684A3F2DE9F047D0
:100220004FF0000A2AE0504603F046F88046794A2B
:10023000794B03F091F80646784A794B02F030FE8C
:10024000044602F0FBFD774941F82A00504603F0CE
:1002500033F80646744A754B03F07EF804464FF0B7
:100260006632734B02F01CFE804602F0E7FD7149D6
:1002700041F82A000AF1010000F0FF0ABAF1660F06
:10028000D1DBBDE8F087012181724FF07F51016021
:10029000002101724172002202750621C16070477F
:1002A000022181724FF07F51016000210172417281
:1002B000002202750221C16080F8EC200322C0F800
:1002C000E420704770B50546002422E0554A52F8F4
:1002D0002400296803F00EFC19D8524B621C53F815
:1002E0002210286803F006FC11D84E4B621C53F80C
:1002F0002200296803F0B6FB05D14E48611C50F876
:100300002100686003E04B4850F824006860601CDE
:10031000C4B2652CDADB70BD2DE9F0470446002538
:10032000A946002640E005EBC50101EB410204F1BE
:100330000C0101EBC200FFF728FF05EBC50101EB43
:10034000410204F10C0101EBC201486803F02EFAEE
:1003500007460022384B03F0FDF80AD2012105EBD5
:10036000C50000EB400204F10C0000EBC20001727A
:1003700018E0002105EBC50000EB400204F10C0081
:1003800000EBC2000172701CC6B205EBC50000EBA9
:10039000400204F10C0000EBC2004168484603F043
:1003A00031FA8146681CC5B2A07AA842BBDC5EB1B6
:1003B000304603F08BFB07463946484603F090FA77
:1003C00020600020E07203E00120E0721B48206002
:1003D000206803F0EBF90746194A1A4B02F080FF38
:1003E00002D80120207201E000202072206803F072
:1003F000DDF90746144A154B03F0ACF802D801208A
:10040000607201E0002060722046FFF75BFFBDE8EC
:10041000F0870000E8DEC325C79D823F39B4C87667
:10042000BE9F9A3F44000020E3A59BC420B0C23F7A
:1004300066661240DC0100200000F83F000080BF2B
:1004400008AC1C5A643BCF3F07CE1951DA1BEC3F76
:1004500001B5042002F09EFBAF4908609DF8000042
:10046000096808709DF80100AB49096848709DF85B
:100470000200A949096888709DF80300A649096827
:10048000C870A548006808BD70B505462868FFF724
:10049000DFFFA24908600420A14988709F480068D6
:1004A0004078C8709D480068007808719B480068D3
:1004B000C078487199480068807888710721984809
:1004C00000F036F906469649CE71300A08720024CB
:1004D0000DE09348015D934802F09EFA00BF202191
:1004E000904802F0CDFA0028F9D1601CC4B2092C62
:1004F000EFDB8A48006802F07CFB70BD2DE9F05FFD
:1005000006460F4690469946DDE90AAB0420844929
:1005100088700020C870087148718871BBF1010FA4
:1005200005D10846807940F00100887108E0BBF1F0
:10053000020F05D17A48807940F00200784988712D
:10054000BAF1010F06D17648807940F00400744971
:10055000887108E0BAF1020F05D17148807940F046
:1005600008006F4988716E488079F97A09B90121CC
:1005700000E0002140EA011069498871084680794D
:10058000F17A09B9012100E0002140EA41106449F3
:1005900088710846807999F8001009B9012100E0B6
:1005A000002140EA81105E4988710846807998F8F8
:1005B000001009B9012100E0002140EAC1105849AA
:1005C00088710721564800F0B3F805465449CD71AB
:1005D000280A087200240DE05148015D514802F0DC
:1005E0001BFA00BF20214F4802F04AFA0028F9D137
:1005F000601CC4B2092CEFDBBDE8F09F2DE9F0418F
:1006000005460E467068FFF723FF44490860686896
:10061000FFF71EFF444908600820414988703F48A1
:1006200000684078C8703D480068007808713B4811
:100630000068C078487139480068807888713A4805
:1006400000684078C87138480068007808723648F9
:100650000068C078487234480068807888720B213E
:100660002F4800F065F807462D49CF72380A087305
:1006700000240DE02A48015D2A4802F0CDF900BFB0
:100680002021284802F0FCF90028F9D1601CC4B2EE
:100690000D2CEFDB2148006802F0ABFA224800681D
:1006A00002F0A7FABDE8F0812DE9FC5F04460D4693
:1006B00016461F46DDE910ABDDE90C89B4F5807FF5
:1006C00008D143463A4631462846CDE900ABFFF70C
:1006D00015FF1BE0B4F5306F04D131462846FFF713
:1006E0008DFF13E0B4F5817F03D14846FFF7CCFEC0
:1006F0000CE0B4F5827F03D10E98FFF7C5FE05E04C
:10070000B4F5837F02D10F98FFF7BEFE01210748A1
:1007100001F075FEBDE8FC9F1000002014000020D1
:100720000000002000000340180000200080074067
:1007300070B502460C46FF25FF2309E012F8010BB5
:1007400080EA03010648405C80EA05030548455CF1
:10075000201EA4F10104F1D143EA052070BD000080
:100760003E3D00083E3E000810B51021BB4802F097
:1007700037F901287ED11021B84802F039F9B7487D
:1007800002F04EF9B6490870B648007809281BD225
:10079000DFE800F0051B345988A0BDCCF200B0485A
:1007A0000078102810D1AE480078AF49AF4A1278CF
:1007B0008854AE480078401CAC4908700120A94913
:1007C00008700020AA490860DEE0A54800780328E8
:1007D0000ED1A3480078A449A44A12788854A348AB
:1007E0000078401CA149087002209E49087004E06E
:1007F00000209C4908709D490870C5E09848007821
:100800000B2803D096480078012816D19848006834
:100810009349097840EA012095490860904800789A
:100820009149924A1278885490480078401C8F4928
:10083000087003208B49087004E000208949087083
:100840008A490870A0E08648007858B1844800784A
:10085000022807D082480078042803D08048007816
:10086000062817D1824800687D49097808438049E5
:10087000086000E089E07A4800787B497B4A12787A
:1008800088547A480078401C7849087004207549DB
:10089000087006E0002073490870744908707449B4
:1008A000086071E06E48007870B96D4800786E4954
:1008B0006E4A127888546D480078401C6B49087065
:1008C00005206849087004E00020664908706749FF
:1008D000087059E062480078042803D06048007826
:1008E00002280ED15E4800785F49604A1278885429
:1008F0005E480078401C5D49087006205949087020
:1009000004E0002057490870584908703CE05448FA
:1009100001785548554A1278815454480078401C53
:100920005249087007204F4908702DE04C48017863
:100930004D484E4A127881540621FFF7F9FE0446CD
:1009400049488079E1B288420FD14748C079B0EB7D
:10095000142F0AD10121474801F051FD00204349DD
:10096000087008203F49087004E000203D490870E5
:100970003E49087008E0FFE700213E4801F03FFDD6
:1009800000203849087000BF03E01021334802F00E
:100990002FF810BD10B50221374801F05CFF30B1CF
:1009A0000221354801F041FF00F070FE03E0022112
:1009B000314801F03AFF10BD10B502212F4801F077
:1009C0004AFFA0B102212D4801F02FFF00F099FA53
:1009D00001212B4801F085F90021284801F00FFD85
:1009E000002020490870022000F02EFE03E00221C2
:1009F000224801F01AFF10BD00B587B002211D4842
:100A000001F029FF18B302211A4801F00EFF00215E
:100A1000184801F0F4FC0121194801F057F900F0E1
:100A200064FA1848007818490978184A184BCDE933
:100A30000232CDE9041017481749184B184ACDE97E
:100A4000001018490A480068FFF72EFE03E0022153
:100A5000084801F0EAFE07B000BD000000000340B6
:100A60001C000020260000201D0000202500002082
:100A700028000020000008400000074000800740D8
:100A800000800A403100002030000020D4080020FF
:100A9000F407002014070020EC06002000070020C7
:100AA000740300203005002010B5002807DA4A073B
:100AB000140EFE4A00F00F031B1FD45403E04A0734
:100AC000130EFB4A135410BD10B501F0A1F901201B
:100AD00001F0B1F900BF222001F043F90028FAD05B
:100AE0000921022001F043FA012001F05EFA00BF63
:100AF000222001F036F90028FAD0002001F072FA25
:100B0000012001F04FFA4FF4807001F022F9012129
:100B1000102001F011F910BD0EB50121480501F0BA
:100B20000BF90121880501F007F90121C80501F041
:100B300003F90121080601F0FFF80121480601F040
:100B4000FBF80121480701F0F7F8684601F0A5F825
:100B50000320ADF8000001208DF80A0000208DF878
:100B6000080001208DF8020000208DF806008DF8A5
:100B700003008DF8040001208DF809006946CD4876
:100B800000F0AAFF0F20ADF8000001208DF8020050
:100B900000208DF8080001208DF80A008DF809006A
:100BA0006946C54800F098FFC020ADF8000001205C
:100BB0008DF8020000208DF8080001208DF80A0051
:100BC0008DF809006946BD4800F086FF00208DF8C9
:100BD00003008DF804008DF805008DF806008DF8EF
:100BE000070002208DF8080003208DF8090001207D
:100BF0008DF80A008DF802002020ADF8000069464B
:100C0000AF4800F069FF00208DF802004020ADF8E9
:100C100000006946AA4800F05FFF684601F03DF811
:100C20006F20ADF8000000208DF80A006946A54845
:100C300000F052FF684601F030F87020ADF8000077
:100C400001208DF80A0000208DF808008DF80200C0
:100C50008DF806008DF803008DF8040001208DF852
:100C600009006946944800F037FF0C20ADF80000F9
:100C700001208DF8020000208DF8080001208DF879
:100C80000A008DF8090069468F4800F025FF0EBD67
:100C900000B587B00121880301F04EF80121C80397
:100CA00001F04AF80121080401F046F8874801F0F4
:100CB0005BFB0021854801F0DAFD0020ADF804005F
:100CC00041F63F70ADF806000A20ADF8080000209C
:100CD000ADF80A00ADF80C00ADF80E00ADF810004C
:100CE000ADF81200ADF81400ADF81600ADF818001C
:100CF000ADF81A0001A9754801F058FB0122022144
:100D0000724801F09FFD0E2000F01BF903210E2018
:100D1000FFF7CAFE01216D4801F071FB6C4801F03C
:100D200023FB00216A4801F0A2FD0020ADF8040079
:100D300041F63F70ADF806000B20ADF8080000202A
:100D4000ADF80A00ADF80C00ADF80E00ADF81000DB
:100D5000ADF81200ADF81400ADF81600ADF81800AB
:100D6000ADF81A0001A95A4801F020FB0122022126
:100D7000574801F067FD02210F20FFF795FE0F2075
:100D800000F0DFF8534801F0EFFA0021514801F07C
:100D90006EFD0020ADF8040041F63F70ADF806008E
:100DA0002E20ADF808000020ADF80A00ADF80C00C8
:100DB000ADF80E00ADF81000ADF81200ADF814005B
:100DC000ADF81600ADF81800ADF81A0001A94148B9
:100DD00001F0ECFA012202213E4801F033FD01212D
:100DE0001020FFF761FE102000F0ABF807B000BD47
:100DF00000B593B00121480400F09EFF00200C9044
:100E00000D900E900F901090119012900CA800F081
:100E10009BFC01A800F011FD002001904FF4104050
:100E20000A900020029003900490059007200B90F8
:100E300000200690ADF81C00ADF81E000890099047
:100E400001A800F0ABFC012000F005FD13B000BDCF
:100E50001FB50121402000F06FFF00211E4801F066
:100E600017FE062000F06DF800210620FFF71CFE9B
:100E70004FF4165000906020ADF804000020ADF84B
:100E80000600ADF80800ADF80A004FF44070ADF868
:100E90000C006946104801F028FD012210210E487F
:100EA00001F08CFD0021062018E0000018ED00E0A4
:100EB00000E400E000800B4000800A4000800C400D
:100EC00000000B4000000C4000800E400000074076
:100ED000008007400000084000000340FFF7E4FDE9
:100EE00001211D4801F05EFD1FBD0EB500208DF8EB
:100EF00008004020ADF800006946184800F0ECFDFD
:100F00000EBD0EB500208DF804008DF805008DF89B
:100F100006008DF8070002208DF8080003208DF8E8
:100F2000090001208DF80A0000208DF803008DF8DB
:100F300002004020ADF800006946084800F0CCFDF2
:100F40000EBD00F01F02012191404209920002F102
:100F5000E022C2F8001170470000034000000B407F
:100F600010B50020F5490860F548007810B1012857
:100F700041D121E04021F34800F09DFE28B9F2481C
:100F80000088401CF049088002E00020EE490880FB
:100F9000ED4800880A280BDBE9480078401CE84946
:100FA00008700020E84908800120E449086010BD6D
:100FB0000020E2490860FAE74021E24800F07BFEA9
:100FC000A8B1E1480088401CDF4908800846008835
:100FD0000F2808DB0020DA490870DB49088002206E
:100FE000D6490860E3E70120D4490860DFE7012023
:100FF000D2490860DBE700BF00BFD8E710B5102179
:10100000D04800F058FE18B10120D04908700BE01C
:101010002021CC4800F04FFE18B10220CB490870C7
:1010200002E00020C9490870FFF79AFF10BD10B513
:10103000C6480078C649097888420CD0C54800F0F7
:10104000E0F9C54800F0DDF9C0480078C0490870F3
:101050000020C2490870C148007830B101284BD047
:10106000022863D003281BD17DE0B4480068022821
:1010700003D0BB48007A012820D1B4480078E8B1F9
:10108000B748007DD0B9B1480078012809D1B448EB
:101090000168B04800F0A4F968BB0120AF490870AE
:1010A0007AE0B048007A30BBAD480168AA4800F049
:1010B00097F900BB0220A94908701CE09F4800680E
:1010C000C8B1A748007DB0B10320A44908709F486B
:1010D0000078012802D002280CD105E0A048016860
:1010E0009C4800F07DF905E09D4801689A4800F0B1
:1010F00077F900BF00BF4FE090480068022802D097
:101100009748407A30B1934800F07BF9002093492A
:1011100008700AE0924801688E4800F07EF918B124
:1011200000208E49087000E036E035E08348006812
:10113000022805D08A48407A10B98A48007A30B12E
:10114000854800F05EF90020844908700AE0844870
:101150000168814800F061F918B100207F490870EA
:1011600000E019E018E075480068012800D113E09C
:1011700076480078012802D0022808D103E075489B
:1011800000F03FF903E0744800F03BF900BF00BFF6
:1011900000207249087000BF00BF10BD10B5714833
:1011A000007DE8B1012000F038FA012000F069FA72
:1011B000FA2824D36C48007838B10421614800F043
:1011C00085FD00206849087006E004215D4800F0B4
:1011D00088FD012064490870012000F02CFA0EE01F
:1011E000012000F028FA5F48007A20B10421554818
:1011F00000F06CFD03E00421524800F072FD5848F5
:10120000C07AE8B1002000F008FA002000F039FAB6
:10121000FA2824D35548007838B10221494800F013
:1012200055FD00205149087006E00221454800F0B4
:1012300058FD01204D490870002000F0FCF90EE037
:10124000002000F0F8F94648007A20B102213D481C
:1012500000F03CFD03E002213A4800F042FD3E4828
:10126000007820B10421424800F030FD03E0042161
:101270003F4800F036FD3748007820B108213C484F
:1012800000F024FD03E00821394800F02AFD10BDDC
:10129000FFF71AFCFFF740FCFFF7DAFDFFF7A8FDA8
:1012A000FFF7F6FC00F0ACF9FEF7B8FF294800F0B4
:1012B00075F8294800F089F82A48FEF7E4FF284825
:1012C000FEF7EEFFFEF7AAFF2A4800F0F5F82A48DD
:1012D00000F0F2F8294800F0EFF80121284800F06A
:1012E00000FD0221264800F0FCFC0121154800F019
:1012F000F8FC0221134800F0F4FC0421114800F02E
:10130000F0FC002418E0FFF779FE322C02DDFFF735
:101310008EFE00E0641C1248FEF7FEFF1148FEF747
:10132000FBFF144800F0DFF8134800F0DCF8134826
:1013300000F0D9F8FFF732FFE5E700002C000020AD
:101340003400002000800A403200002030000020DD
:1013500035000020EC0600200007002031000020AE
:1013600074030020300500203700002036000020E4
:1013700000800E4014070020F4070020D40800204D
:1013800000800B4010B50221354800F0AAFC10BDCA
:1013900010B50221324800F099FC10BDAFF20F01E8
:1013A000C160AFF21F01016106210172002141708D
:1013B000704710B501212A4800F093FC10BD10B50C
:1013C0000121274800F082FC10BDAFF20D01C16081
:1013D000AFF22101016105210172002141707047C6
:1013E00070B504460D46207808B1012070BDE06854
:1013F000804701206070207A00F00FF965600020BE
:10140000F4E710B504462069804700206070207A18
:1014100000F011F90020606010BD70B504460D4663
:101420002846616802F0E5FB08D2207A00F003F953
:10143000207A00F0F2F86560002070BD207A00F09C
:1014400020F90849884209D92046FFF7DAFF012030
:101450002070207A00F0EFF80120EEE70020ECE7A2
:1014600000800B40400D03002DE9F0474FF0000ACB
:101470001DE0504602F02AFB554941F82A0050462B
:1014800001F01AFF0646534A534B01F065FF04462C
:101490004FF06632514B01F003FD804601F0CEFC67
:1014A0004F4941F82A000AF1010000F0FF0ABAF1A1
:1014B000660FDEDBBDE8F0870021016001710022CC
:1014C0000274816070470021016001710022027482
:1014D00001218160704700210160017100220274C6
:1014E0000521816070472DE9FE4F0446FFF7BCFFE0
:1014F0000020029004F10800FEF747FE0290E06829
:1015000002F054F905460022364B02F023F802D2CD
:101510000121217401E000212174E06802F046F904
:1015200007464FF06632304B02F04AF805462A462D
:101530000B4600202D4901F067FD00222C4BCDE920
:10154000000102F049F8824601F078FC0290294936
:10155000029802F07FFB824602F028F90746264AED
:10156000264B01F051FD054601F068FC20604FF06C
:10157000000927E0164A52F82900216802F0BAFA59
:101580001CD8134B09F1010253F82210206802F015
:10159000B1FA13D80E4B09F1010253F82200216869
:1015A00002F060FA06D10E4809F1010150F821005D
:1015B000206003E00A4850F82900206009F101008A
:1015C00000F0FF09B9F1650FD4DBBDE8FE8F000024
:1015D000B4090020E3A59BC420B0C23F6666124058
:1015E0004C0B00200000F83F66660A4000C08840AF
:1015F00000006E400000CA429A9999999999D93F82
:10160000002000BF06E00021334A02EBC002117146
:10161000411CC8B20A28F6DB70472F4901EBC00114
:10162000097939B900212C4A42F83010012102EB26
:10163000C002117170470021274A02EBC0021171EC
:10164000254A42F8301070470021234A42F83010F2
:101650007047214901EBC0010979012904D1022118
:101660001D4A02EBC002117170471B4901EBC0011A
:101670000979022904D10121174A02EBC002117134
:1016800070470146144850F83100704700200EE0C2
:10169000114901EBC0010979012906D10E4951F820
:1016A0003010491C0C4A42F83010411CC8B20A28BC
:1016B000EEDB704709480068401C08490860704725
:1016C00007480068401C06490860704703480068E6
:1016D0007047034800687047E40C00203800002081
:1016E0003C0000200948804709480047FEE7FEE724
:1016F000FEE7FEE7FEE7FEE7FEE7FEE7FEE7FEE7C2
:1017000004480549054A064B704700004F2B000866
:10171000C1000008980D002098130020980F0020A9
:10172000980F00200020E449086048608860C86085
:1017300008614861084680690846C069002008625F
:1017400048628862C862704710B50479036803EB89
:10175000047384682344C4682344046923444469AB
:101760002344048B03EB4451D44AD34B1B6893436B
:101770000B44D14C236010BD0021016041608160A9
:10178000C1600161416181617047CB4A126822F0FA
:10179000F07101EB4052C84B1A60704710B5C64B50
:1017A0001A68C64BDB1C1A40D0E900342344846815
:1017B0002344C46803EB041344692344C4692344E9
:1017C000446A234490F8284003EB44631A44BA4B1C
:1017D000596821F40031038C01EB4341B64B1A6088
:1017E0005960038BB44C2361438BA3600369A362EC
:1017F00010BDB14A5168B24A1140D0E900231A44E1
:1018000083681A44C36802EB031243691A44C3692C
:101810001A44038C02EB8342436A1A4490F828303E
:1018200002EB43621144A44A5160028BA24B5A61FD
:10183000428BDA600269DA62704700210160416020
:101840008160C1600161416101834183C1610162C5
:101850004162816270470146974A106811B140F0B9
:10186000010001E020F00100934A1060704701463A
:10187000914A506811B140F0010001E020F00100F0
:101880008D4A5060704701468B4A106820F4F8700A
:1018900000EB0110106070470146874A506820F441
:1018A000F87000EB01105060704783498862704700
:1018B0008149C862704702467F4B186820F4027065
:1018C000531818447C4B1860704702467A4B58688E
:1018D00020F4027053181844774B58607047014643
:1018E000754A106820F008000844106070470146EF
:1018F000714A506820F00800084450607047014663
:101900006D4A106820F4007008441060704701466A
:10191000694A506820F4007008445060704710B560
:101920000346654C206820F48060104420602361E9
:10193000A16010BD10B503465F4C606820F4806064
:10194000104460606361E16010BD5B4908617047ED
:101950005949486170475849886070475649C8607E
:1019600070475548006840F00200534908607047CE
:101970005148406840F002004F49486070474E4867
:10198000806970474C48C06970474B48006A4A49B3
:10199000496A00EB014070474748006A7047464873
:1019A000406A704700B50346FFF7EFFF184008B9DB
:1019B000002200E00122104600BD01463E4A126AA4
:1019C0000A400AB9002000E00120704701463A4A67
:1019D000526A0A400AB9002000E0012070473648E8
:1019E000006A20F001003449086270473248406ABA
:1019F00020F001003049486270472F48006A20F00B
:101A000002002D49086270472B48406A20F002000E
:101A100029494862704730B503460C46264D296A6D
:101A20006A6A980024B185B2294342EA104203E071
:101A300085B2A94322EA10421F4D29626A6230BD75
:101A40000A461D4B196A12B141EA800101E021EA00
:101A50008001194B196270470A46174B596A12B137
:101A600041EA800101E021EA8001134B596270478D
:101A700010B50446FFF789FF034604EA93000340CC
:101A80000BB9002200E00122104610BD02460A4BAD
:101A9000196A02EA9103194009B9002000E0012007
:101AA00070470246044B596A02EA9103194009B98A
:101AB000002000E001207047008008400000FFF196
:101AC0000300FBF10021C1600161416001608160A0
:101AD00041618161C16170472DE9FE4F4768D0F8CF
:101AE00008C0D0F80C80D0F81090D0F814A0CDF831
:101AF00008A0D0F818A0CDF804A0D0F81CA0CDF80C
:101B000000A00022012303254FF001160C885FE09E
:101B100004F0010ABAF1000F55D027EA030A91F840
:101B200002B00BFA02FB4AEA0B0791F808A04FEA51
:101B3000420B0AFA0BFA2CEA050B4AEA0B0C28EACC
:101B4000030A91F80AB00BFA02FB4AEA0B0829EAE9
:101B5000060A91F803B002F1100E0BFA0EFB4AEAE6
:101B60000B0A91F804B00BFA02FB4AEA0B09DDF804
:101B700008A02AEA060A91F805B00BFA0EFB4AEA19
:101B80000B0A91F806B00BFA02FB4AEA0B0ACDF8F1
:101B900008A091F809A04FEA420B0AFA0BFADDF807
:101BA00004B02BEA050B4AEA0B0ACDF804A0DDF8D5
:101BB00000A02AEA030A91F807B00BFA02FB4AEAEE
:101BC0000B0ACDF800A05B00AD007600521C640843
:101BD000002C9DD1DFF85CA1504502D14FF01F0AC7
:101BE00001E04FF0000A27EA0A0AC0F804A0DFF873
:101BF00044A1504502D14FF01F0A01E04FF0000A06
:101C00002CEA0A0AC0F808A0DFF828A1504502D142
:101C10004FF01F0A01E04FF0000A28EA0A0AC0F854
:101C20000CA0DFF810A1504502D14FF01F0A01E0CF
:101C30004FF0000A29EA0A0AC0F810A0DFF8F4A061
:101C4000504502D14FF01F0B01E04FF0000BDDF8C3
:101C500008A02AEA0B0AC0F814A0DFF8D8A0504563
:101C600002D14FF01F0B01E04FF0000BDDF804A094
:101C70002AEA0B0AC0F818A0DFF8B8A0504502D134
:101C80004FF01F0B01E04FF0000BDDF800A02AEA37
:101C90000B0AC0F81CA0BDE8FE8F4FF6FF71018053
:101CA00000218170C170017141718171C171017236
:101CB000417281727047024613680B400BB10120DC
:101CC00000E0002070470146086870470268194B21
:101CD000984201D11F2300E000239A430A43026087
:101CE00070470268134B984201D11F2300E0002384
:101CF0000B439A430260704730B5134604680D4D9C
:101D0000A84201D11F2500E0002524EA05021BB1ED
:101D100042EA0104046002E022EA0104046030BDEA
:101D2000044A904201D11F2200E0002221EA02026F
:101D30000260704700000B4029B1FE4AD26902439D
:101D4000FC4BDA6104E0FB4AD2698243F94BDA6169
:101D500070470146F74AD06820F440700843D060CD
:101D6000704710B5014601F0E003202B02D1F14B82
:101D70001A6801E0F04BDA6B01F01F040123A34065
:101D800013400BB1012000E0002010BD38B5002049
:101D9000009000BF1720FFF7E4FF05460098401CA5
:101DA00000900098B0F5C06F01D2002DF2D017203E
:101DB000FFF7D7FF08B1012400E00024204638BD1A
:101DC000DE490860704700B50120FFF7F9FFFFF713
:101DD000DDFF0020FFF7BDFFD648C0680020D549D1
:101DE000C8600846406800204860084680680020B7
:101DF00088600846006900200861084640690020A4
:101E000048610846806900208861CD48C86100BDEE
:101E100000B5FFF7D8FF0121C806FFF78DFFC648C0
:101E2000C06B40F48100C449C8630846C06B00F42D
:101E30008100C86300BDBF49896821F00301BD4A24
:101E40009160012802D002280ED106E0B9498968C4
:101E500041F00101B74A916007E0B649896841F055
:101E60000301B44A916000E000BF00BF704738B57D
:101E70000020009000BF2220FFF773FF0546009866
:101E8000401C00900098B0F5C06F01D2002DF2D038
:101E90002220FFF766FF08B1012400E0002420465D
:101EA00038BDA549C96B21F00301A34AD1630128BC
:101EB00002D002280ED106E09F49C96B41F0010112
:101EC0009D4AD16307E09C49C96B41F003019A4ADE
:101ED000D16300E000BF00BF704738B5002000901C
:101EE00000BF0D20FFF73DFF05460098401C009005
:101EF0000098B0F5C06F01D2002DF2D00D20FFF791
:101F000030FF08B1012400E00024204638BD01461E
:101F1000894AD06B20F07C5040EA0160D063704762
:101F200086491C39086070470146834AD06B20F40B
:101F3000F81040EA0140D063704738B500200090A7
:101F400000BF1520FFF70DFF05460098401C0090CC
:101F50000098B0F5C06F01D2002DF2D01520FFF728
:101F600000FF08B1012400E00024204638BD10B570
:101F70000246704BD86820F003001043D8605868C0
:101F800020F4706040EA012058606E4B1B6843B13A
:101F900001236C4C241D236000236A4C883CC4F848
:101FA0008C3010BD6849086070476649086070470A
:101FB00038B50020009000BF2120FFF7D2FE054673
:101FC0000098401C00900098B0F5C06F01D2002D21
:101FD000F2D02120FFF7C5FE08B1012400E0002463
:101FE000204638BD0146534AD06820F0F00040EA50
:101FF0000110D060704710B502464E4B186920F0B2
:10200000030010431861586820F0F00040EA011006
:1020100058604C4B083B1B6843B10123494C241FBB
:1020200023600023474C883CC4F8843010BD4649E7
:10203000803108607047434908390860704738B5F7
:102040000020009000BF2020FFF78BFE054600987F
:10205000401C00900098B0F5C06F01D2002DF2D066
:102060002020FFF77EFE08B1012400E00024204676
:1020700038BD354998310860704733498831086068
:10208000704701462B4A506920F0330008435061E5
:1020900070470146274A506920F4706040EA0120E9
:1020A000506170472949086070470146214A90698C
:1020B00020F0F00040EA0110906170472349703130
:1020C0000860704701461B4A906920F00F000843E2
:1020D000906170471D496C31086070472DE9FC4FD5
:1020E0000146DFF860B0ABF1880BDBF884B1BBF1DF
:1020F000000F01D0164B00E0154BDFF848B0ABF1F4
:10210000880BDBF880B1BBF1000F00D05B081C46E8
:10211000DFF830B0ABF1880BDBF888B1BBF1000F12
:102120001ED0DFF810B0DBF804B0CBF3032B0BF1BB
:10213000010B0FE00000024000800D40D807B043C3
:10214000100000088800404288014042B40240422A
:1021500000127A00CDF800B0DDF800B004FB0BF4FB
:10216000DFF8F8B1DBF80CB0CBF3012BBBF1000FBB
:1021700006D0BBF1010F08D0BBF1020F28D122E03D
:10218000DFF8DCB1C1F800B027E0DFF8D0B1DBF850
:102190000CB04FF0080E0EEA1B1BBBF1000F01D173
:1021A000A0460DE0DFF8B4B1DBF80CB0CBF3021BB6
:1021B0000BF1010B4FF0010E0EFA0BFEB4FBFEF813
:1021C000C1F8008009E04FF4004BC1F800B004E012
:1021D00049F6404BC1F800B000BF00BFDFF884B142
:1021E000DBF804B2BBF1000F01D05D4D00E05C4DA7
:1021F000DFF870B1DBF800B2BBF1000F00D06D0862
:102200002F46DFF860B1DBF808B2BBF1000F0DD04C
:10221000DFF848B1DBF804B0CBF3031B0BF1010B83
:10222000CDF800B0DDF800B007FB0BF7B946DFF8DA
:1022300034B1DBF810B2BBF1000F01D04FEA5909FD
:10224000C1F80490DFF814B1DBF818B04FEA1B10A6
:1022500000F0080BBBF1000F02D1DFF804C10BE066
:1022600000F0070B0BF1010B4FF0010E0EFA0BF013
:10227000DFF8ECB0BBFBF0FCC1F80CC0DFF8DCB061
:10228000DBF8180000F0080BBBF1000F04D1DFF8F9
:10229000D0B0CDF804B00DE000F0070B0BF1010B4E
:1022A0004FF0010E0EFA0BF0DFF8B4B0BBFBF0FB01
:1022B000CDF804B0DDF804B0C1F810B0DFF89CB080
:1022C000DBF814B00BF0030BBBF1000F06D0BBF131
:1022D000010F05D0BBF1020F06D103E01E4605E059
:1022E0002E4603E0264601E03E4600BF00BFDFF871
:1022F0006CB0DBF814B0CBF3011BBBF1000F06D0C0
:10230000BBF1010F06D0BBF1020F08D105E04FF47D
:10231000004206E049F6404203E0324601E06246F0
:1023200000BF00BFDFF834B0DBF814B04FEA1B2069
:1023300000F0080BBBF1000F01D1924609E000F05C
:10234000070B0BF1010B4FF0010E0EFA0BF0B2FB75
:10235000F0FAC1F808A0BDE8FC8F000000000240C0
:1023600000127A00000040420021C160016041601B
:102370008160016241628162C16201634163816384
:10238000C163016641668166C16601614161816127
:10239000C161016741678167C1670164416481640C
:1023A000C164016541658165C165704730B50C88C0
:1023B00004604C8844608C888460CC880D892C44EF
:1023C0004D892C448D892C44CD896319C3604C8A76
:1023D0000D8A04EB05148D8A2C44CD8A621902659E
:1023E00030BD0021018041808180C1800181418117
:1023F0008181C181018241828182C18270470A4606
:10240000C16812B141F0010101E021F00101C16098
:10241000704701607047416070478160704710B538
:102420000B46C16821F002011144C160836010BDF8
:102430000146086880B270470A46C16821F470619D
:102440001144C16070470A46C16821F0300111444F
:10245000C16070470A46C16821F0C0011144C160E3
:1024600070470A46C16821F008011144C1607047F5
:1024700030B50C46016D21F0FE01A51805EB0315E2
:102480002944016530BD0A46016D21F0F00101EBE0
:102490000211016570470A46016D21F00C011144DB
:1024A000016570470A46016D21F002011144016582
:1024B00070470A46016D21F0010111440165704722
:1024C0000146CA6802F008020AB9002000E00820AC
:1024D00070470146CA6802F004020AB9002000E011
:1024E0000120704770B54D88CE8835440E8935443B
:1024F0004E8935448E8905EB8615CE8935440E8A82
:10250000AC198D880DB104F500540A8800F120053E
:1025100045F822404D8ACE8AAB198D8A05B11B1D24
:1025200000F1600545F8223070BD00210180418036
:102530008180C180018141818181C181018241828B
:102540008182C182704710B500F1100404EB810351
:102550001A6010BD10B500F1700404EB81031A601D
:1025600010BDF0B5144600F1600707EB81052A683D
:1025700022F008021A442A60503F07EB81063460BB
:10258000F0BDF0B5144600F1600707EB81052A683D
:1025900022F008021A442A60103707EB81063460E3
:1025A000F0BD10B5024602F1100000EB81031C687B
:1025B000A0B210BD10B5024602F1700000EB81031D
:1025C0001C68A0B210BD30B5034603F1200505EB31
:1025D0008104206812B140F4807001E020F4807022
:1025E000206030BD30B5034603F1200505EB8104C2
:1025F000206820F400501044206030BD30B5034600
:1026000003F1200505EB8104206820F4805010447C
:10261000206030BD30B5034603F1200505EB810491
:10262000206820F460601044206030BD30B503465F
:1026300003F1200505EB8104206820F0C00000EBC9
:102640008210206030BD30B5034603F1200505EB54
:102650008104206820F030001044206030BD30B587
:10266000034603F1200505EB8104206820F00F00EC
:102670001044206030BD10B5024602F1200404EB86
:1026800081031C6804F480440CB9002000E00120A0
:1026900010BD30B5034603F1600505EB81042068E9
:1026A00020F003001044206030BD30B5034603F134
:1026B000600505EB8104206812B140F0040001E0E0
:1026C00020F00400206030BD70B54D882D018E884B
:1026D00005EB8605CE8835440E8905EB06354E8917
:1026E00005EB86258E8905EB06230A8800F1300567
:1026F00045F822300D8ACE8905EB06254E8AAC19A5
:1027000000F1400545F8224070BD002141808180E4
:10271000C180018141818181C181018241827047F3
:10272000F0B50446059E04F1300707EB81052868E3
:1027300020F01F00370107EB82071F443844286050
:10274000F0BD30B5034603F1300505EB8104206888
:1027500020F00C0000EB8200206030BD30B5034655
:1027600003F1300505EB8104206820F003001044DC
:10277000206030BD30B5034603F1300505EB810420
:10278000206820F0100000EB0210206030BDF0B592
:102790000446059E04F1300707EB8105286820F404
:1027A000F850370307EB822707EB032738442860EC
:1027B000F0BD30B5034603F1300505EB8104206818
:1027C00020F4406000EB8220206030BD30B503462D
:1027D00003F1300505EB8104206820F4407000EB24
:1027E0000220206030BD30B5034603F1300505EB13
:1027F0008104206820F4805000EB0230206030BD5E
:1028000070B5049C03EB0226351900F1400646F82A
:10281000215070BD0146486D70470246536D0B4014
:102820000BB9002000E001207047426D8A434265E9
:10283000704710B51346C26D0BB10A4300E08A43DE
:10284000C26510BD10B51346826D0BB10A4300E09E
:102850008A43826510BD30B50246546D956D2C409B
:1028600004EA01030BB9002000E0012030BD02465C
:10287000104B586A104B9A4205D120F0FF000843D4
:1028800040F0807012E00D4B9A4206D120F47F4058
:1028900040EA012040F0007008E0094B9A4205D15F
:1028A00020F47F0040EA014040F08060014B586214
:1028B0007047000000000240000007400080074011
:1028C0000000084000210163C162416090218161E4
:1028D0000021016241628162022141630021816322
:1028E00081644FF44071016370472DE9F04F87B068
:1028F00004460D4601A8FFF7F1FB019F7048866A68
:102900007048844206D106F0070101208840B7FBD9
:10291000F0F708E06C48844205D1C6F3022101209B
:102920008840B7FBF0F728688008B7FBF0F94FEA5A
:10293000991809F03F0AB8000AEB8811B0FBF1FBC7
:102940002868ABEB0000C0012968B0FBF1F00690ED
:102950000698022803D9002007B0BDE8F08FC4F81C
:102960002480C4F828A0E66AA888E9880843298951
:102970000843698908430643E662266B4FF6807078
:102980008643A889064326630120E5E74FF41651E4
:10299000016000218180C180018141814FF440713B
:1029A0008181704721B1026B42F00102026304E0B1
:1029B000026B4FF6FE731A40026370471AB1836BC5
:1029C0000B43836302E0836B8B4383637047024650
:1029D000D36B0B408B4201D1012000E000207047F7
:1029E0000246136C0B400BB1012000E00020704741
:1029F000426C0A434264704742EAC1034363704732
:102A000010B51AB1836C0B43836404E0836CCC4330
:102A1000A4B22340836410BDC1F308020260704772
:102A20000146086880B2704721B1C26A42F00102D3
:102A3000C26204E0C26A4FF6FE731A43C262704774
:102A400070B586B004460D46042D08D101A8FFF7E5
:102A500045FB019E4FF4E110B6FBF0F02062206BC5
:102A60002843206306B070BD21B1026B42F0020220
:102A7000026304E0026B4FF6FD731A430263704772
:102A8000024693690B400BB1012000E00020704723
:102A900002460B4B986A0B4B9A4205D140F080706E
:102AA00020F0FF00084308E0074B9A4205D140F0B0
:102AB000007020F47F4040EA0120014B986270478B
:102AC00000000240000003400080034030B52D4C60
:102AD000E46804F00204022C01D12B4800E02A48EB
:102AE000284CE46804F0010404B140080146254C78
:102AF000E46804F00404042C05D1224C6468C4F397
:102B00000324631C59431F4CE468C4F3012424B11B
:102B1000012C06D0022C13D10DE01B4C1B4D2C6058
:102B200013E0184CE468C4F30314641CB1FBF4F222
:102B3000164C226009E04FF40044144D2C6004E070
:102B400049F64044114D2C6000BF00BF30BD00B5B8
:102B50000F480C49C8610846C0680020C860084694
:102B60004068002048600846806800208860084669
:102B70000069002008610846406900204861FFF7AD
:102B8000A5FF00BD0000024000127A0040000020B6
:102B90001000000870B5064600F056F8056806F10A
:102BA0000B0020F00704B4429CBF002070BD2B46F0
:102BB0006A68BAB11068A04210D304F108018842D3
:102BC0003CBF5068586007D35168101941601168C4
:102BD000091B016058601460101D70BD13465268D7
:102BE000002AE7D12146284600F036F80028DED139
:102BF00070BD70B50446051F00F026F80068002C73
:102C000014BF446870BD002C18BFAC423CBF2046C6
:102C10006468F8D301680A18AA4218BF456003D156
:102C20002A6805461144016028684119A1421CBF69
:102C30006C6070BD6168696021680844286070BD7F
:102C40007047704770470000004870473C0D0020F7
:102C5000704770477047704738B504460A460020F1
:102C60006946AFF30080002808BF38BD02460099CE
:102C7000204600F03FF8012038BD012000F054B894
:102C8000F8B5AFF30080054600200C46102000BFC9
:102C90000646A819A0420DD9324669460020AFF376
:102CA0000080070008BF00F03FF80098A04218BF5E
:102CB0000546C419FFF7C8FF05600746F01D20F060
:102CC00007004619284600F00AF8B44208BFF8BDCC
:102CD000A21B31463868BDE8F84000F00BB800216F
:102CE0000160C0E90110704710207047004870472C
:102CF000340D0020034640688C46002818BF8842E7
:102D00003CBF03464068F8D318681844884207D08F
:102D10000CF1030020F00700001D411A521A014671
:102D2000081D0A60FFF765BF10B500F039F8BDE86F
:102D3000104000F02FB870477546FFF7D7FFAE463A
:102D400005006946534620F00700854618B020B5B7
:102D5000FEF7D6FCBDE820404FF000064FF000071C
:102D60004FF000084FF0000B21F00701AC46ACE833
:102D7000C009ACE8C009ACE8C009ACE8C0098D46A0
:102D8000704710B50446AFF300802046BDE8104000
:102D9000FDF7E1B9002801D000F02AB87047000023
:102DA00010B5012805D0002103A000F027F801206C
:102DB00010BD09A1F8E7000053494752544D454D55
:102DC0003A204F7574206F662068656170206D65CC
:102DD0006D6F7279000000003A2048656170206DC7
:102DE000656D6F727920636F7272757074656400BF
:102DF00001491820ABBEFEE72600020070B505466B
:102E00000C460A2000E06D1C00F011F835B128785E
:102E10000028F8D102E0641C00F009F814B1207811
:102E20000028F8D1BDE870400A20AFF3008008B553
:102E300069468DF800000320ABBE08BD21F00042BA
:102E4000A2F16052B2F5801F01F0004328BFD2F119
:102E50007F6C0BD95FEA001C43EAC20242EB507060
:102E600018BF704728BF20F001007047B2F5801FDF
:102E7000BCBF184670474FEA410C1CF5001F02D238
:102E8000084600F0B1BE70B500F010FB00000089EC
:102E9000FFF7F6BF4FF00040A0F58000704700003C
:102EA00010B591EA030F48BF83F0004300F19C8303
:102EB000841A71EB030C05D2121943EB0C03001BAF
:102EC00061EB0C01DFF824E14FEA1154A4EB135C31
:102ED0001EEA430F18BF9EEA445F73D023EA0E0335
:102EE000DCF1200E21EA045143F4801332D322FA9C
:102EF0000CFE10EB0E0023FA0CFE41EB0E01CCF1A0
:102F0000200E03FA0EFE10EB0E0051F10001B1F598
:102F1000801FCCF1200E32D201EB045112FA0EF2D6
:102F2000BDE8104058BF7047401C38BF5FEA4202FE
:102F300018BF7047002814BF20F0010041F10001C4
:102F40004FEA410313F5001F38BF7047A1F1C0419C
:102F500000F0FABA012A43EB0302ACF1200CDCF1D9
:102F60001F0E32BF4FF0000E23FA0CF310EB0300DC
:102F700041EB0451B4EB115FD0D0A1EB045101F54A
:102F8000801149085FEA300001EB04510ED350F183
:102F9000000038BF12FA0EFE08D1BDE81040C9E7A4
:102FA000401C38BF5FEA4202CAD1C3E7BDE8104007
:102FB0004FEA410313F5001F38BF7047A1F1C0412C
:102FC00000F0C2BA9EEA445F08D011EA5E0FBDE885
:102FD000104004BF01F0004100207047BDE81040E0
:102FE00070B500F063FA00BF64FBBE3E0000E0FF76
:102FF000491058BFC1F140415B1058BFC3F1404375
:103000008B42EFF3008070472DE9C04130B4DFF808
:10301000A0C23CEA111418BF3CEA131400F0EC8083
:1030200081EA03051CEA111444EAD57418BF1CEAAE
:10303000131500F0C780A4EB05044FF0004545EAE6
:10304000C12145EAC32341EA505143EA525304F1F6
:103050007F74994204F500344FEAC0204FEAC2223F
:1030600008BF904200F09C804FEA13650FF24016B3
:10307000765D4FEA134506FB05F7C7F1807706FB3F
:1030800007F74FEAD737A7FB03687642C8F58038C1
:10309000A7FB06CE38BFA8F1010807FB08E64FF0F2
:1030A000000EA6FB028CE6FB03CEDCF1000CCEF199
:1030B000004E38BFAEF1010EA6FB0C584FF00007D2
:1030C0004FF00005E6FB0E87A1FB08C6A0FB07CE6C
:1030D00016EB0E0645F10005E1FB076515F1E04E24
:1030E0007EBFA4F580345FEA46066D4116F1800785
:1030F00045F100054FEA17274FEA066647EA0567DC
:10310000A6F1DE46B6F1805F4FEA15251FD9384695
:1031100024F0010C05EBC471BCF1FE6F01EB0C1146
:1031200002D8F0BCBDE8008124425CBF01F5801EDE
:103130009EEAC47F02D4F0BCBDE80081244238D4AA
:10314000F0BCA1F1C041BDE8004100F0FDB94FEA7B
:10315000D22242EA43524FEAD323A7FB02864FEA28
:10316000D02040EA415007FB03661EEA0E0F4FEAEB
:10317000D12105FB026658BFA6EB0056B6EB005600
:103180004FEA520E4EEAC37E18EB0E0E56EB530E6C
:10319000BDD518EB02085E417F1C55F10005B6E76E
:1031A0004FF480154FF000074FF000064FF0000875
:1031B000ADE7F0BC4FF0000001F1C04101F000416B
:1031C000BDE8008111EA0C1F0CEA131500D00CE0D9
:1031D00013EA0C1F00F025804FF00000F0BC81EADC
:1031E000030101F00041BDE80081F0BCBDE80041F1
:1031F00081EA030100F0A8B9F0BCBDE8004170B558
:1032000000F054F9097EFC3E00F007B881EA0301A2
:103210004FF0000001F00041704781EA030100F027
:1032200093B9F0BCBDE800414FF000002149704760
:10323000FFFDFBF9F7F5F4F2F0EEEDEBE9E8E6E47B
:10324000E3E1E0DEDDDBDAD8D7D5D4D3D1D0CFCD02
:10325000CCCBCAC8C7C6C5C4C2C1C0BFBEBDBCBB3B
:10326000BAB9B8B7B6B5B4B3B2B1B0AFAEADACAB36
:10327000AAA9A8A8A7A6A5A4A3A3A2A1A09F9F9E10
:103280009D9C9C9B9A9999989797969595949393C2
:10329000929191908F8F8E8E8D8C8C8B8B8A898959
:1032A00088888787868585848483838282818180DC
:1032B0000000FF070000F87FB0FA80F310FA03F176
:1032C0000AD0C3F11D0303F580634FEA41504FEA72
:1032D000035202EBD12170474FF00000704700000D
:1032E00051EA030C17D41CF5801F58BFBCF5801F92
:1032F00000F10680994218BF704708BF904270479E
:1033000007D711F5801F58BF13F5801F19D49942B4
:103310007047894270471CF5801F08D5BCF5801F97
:10332000F7D58B4218BF704708BF824270474FF4F1
:10333000001C1CEB410F38BF1CEB430F01D28B422A
:10334000704770B500F0B2F8922449004FF0005178
:103350004FF08053FFF74CBEDFF848C170B51CEA50
:10336000111E1EBF1CEA13159EEA0C0F95EA0C0FE6
:1033700000F06F8081EA030423EA4C134EEAD47E06
:1033800021EA4C1141F4801143F48013AE44A1FBB7
:10339000024CA0FB0365AEF17F7E361955EB0C05A0
:1033A000A1FB034C4CF10003A0FB021C16EB0C0626
:1033B000654153F10003094218BF46F0010613F4BA
:1033C000007F0BD14FEA03314FEA0530340341EA65
:1033D000155140EA16506FF003020AE04FEAC3218C
:1033E0004FEAC520F40241EA555140EA56506FF0C9
:1033F000020202EB2E4201EB025585EACE710AD0A1
:103400005FEA440C18BF24F0004450F1000041F181
:10341000000120EAD47040F2FE7C624500D270BD0B
:10342000A84214BF4FF080444FF04044002E08BF24
:103430000024BEF1806FA8BFA1F1C041BDE870407B
:1034400080F282804FF0000001F1C04101F00041A4
:1034500070479EEA0C0F0CEA131518BF95EA0C0F83
:1034600006D04FF0000081EA030E0EF0004170BD5F
:1034700000F01CF88900013E00F007B800F009B820
:103480004FEA430C5FEA5C5C08D081EA030100F07C
:103490005BB84FEA410C5FEA5C5CF6D14FF000008C
:1034A000014970470000FF070000F87F0EF1020E8F
:1034B0002EF0030E5EF8046B364205D4012A43EB6E
:1034C000030515F5001F12D8012841EB010C1CF56E
:1034D000001F0CD80ED14FEAD17C15F5001F0CEB64
:1034E0004C0C0CF1020C08BF4CEBD37C04E04FF009
:1034F000080C01E04FEAD37C0CEB4C0526FA05F6EC
:1035000006F00706B6F1040C06D20EEB860CBDE8F9
:1035100070404CF0010C6047DFE80CF0090B020230
:103520004FF000414FF00000A1F5002170BD194699
:103530001046012851EB010418BFD4F5001484BFD4
:10354000002001F0004170BD0808A0F500114FEA0D
:103550003101704753EA010C17D41CF5801F58BF86
:10356000BCF5801F00F106808B4218BF704708BF72
:103570008242704707D713F5801F58BF11F5801F8F
:1035800019D48B4270479B4270471CF5801F08D5A9
:10359000BCF5801FF7D5994218BF704708BF90420D
:1035A00070474FF4001C1CEB430F38BF1CEB410F5E
:1035B00001D2994270470FB40CBC03BCFFF7C1BEE7
:1035C00091EA030F10B581F000413FF571AC83F033
:1035D000004300F009B8000010B591EA030F48BF9E
:1035E00083F000433FF564AC841A71EB030C07D2FF
:1035F00012198CF0004C43EB0C03001B61EB0C0127
:10360000DFF8A4E14FEA1154A4EB135C1EEA430F68
:1036100018BF9EEA445F00F0B08023EA6E03524276
:1036200021EA0451C3EB6E0338BF5B1EDCF1200EB0
:1036300025D322FA0CFE10EB0E0043FA0CFE41EBF0
:103640000E01CCF1200E03FA0EFE10EB0E0051F12C
:103650000001CCF1200E29D412FA0EF201EB045134
:10366000BDE8104058BF7047401C1CBFB2F1004F6E
:10367000704700280CBF491C20F00100704712EB76
:10368000020E43EB030218BF4FF0010E4EEA420256
:10369000ACF1200CDCF11E0E54D943FA0CFE10EBF9
:1036A0000E0051F1FF31CCF11E0ED5D50EF1010EF9
:1036B00012FA0EFE404141EB010101EB445C5FEA6E
:1036C0005C5C10D910EBDE7001EB045138BFBEF129
:1036D000004FBDE8104018BF704700280CBF491CC0
:1036E00020F00100704730D24FEAD42C11F50011C0
:1036F00024F400641BD0B1FA81F20B3AA41AA41E80
:10370000D2F12003914030FA03F31943904001EBCA
:10371000CC71002C01EB0451BDE81040A8BF7047EC
:1037200001F1C0414FF0000001F000417047B0FAD4
:1037300080F310FA03F100D110BDE41A173C4805DC
:10374000C90AE4E701EB045110BD491001EB045133
:10375000BDE810404FEA300002E04FF00001704732
:103760004A0008BF0042F8D0B2F5001F28BF7047DA
:1037700001F000414FF0000070479EEA445F07D01F
:1037800011EA5E0FBDE8104004BF00210020704721
:10379000BDE8104070B5FFF789FE00BF40DFF63E80
:1037A00083F00041104670470000E0FF43004FEAFD
:1037B000D30C4FEA3C0C43401FBF40070CF1605153
:1037C00013F0FE4F70471CF0006F03D100200CF087
:1037D000004170470CF0004343EA507010B540EAD6
:1037E000CC0000F0BBF900BF000000924FEA0001DE
:1037F000FFF7AABE4FF000414FF00000A1F50021F5
:103800007047000090EA010F48BF81F0004100F1CD
:103810002882421A3CBF801A89184FEAD0524FF0D2
:103820007F4C1CEA410FA2EBD15318BF9CEA026FF8
:1038300000F03B804FF0004C4CEA00204CEA0121A4
:1038400021FA03FC10EB0C0C1ED202F1FF325FEAEE
:103850001C2040EBC25038BF70471CF07F0F4FEA6E
:10386000400C18BFBCF17F4F38BF7047C3F1200335
:10387000994008BF20F00100BCF17F4F38BF70476E
:10388000A0F1C04000F0B0B94FEA3C00000A40EBA4
:10389000C25028BF1CF0FF0F4FEA400CE6D018BF03
:1038A000BCF17F4F38BF7047EAE79CEA026F05D052
:1038B00010EA5C0F08BF00F00040704710B500F040
:1038C0004DF900BF64FBBE3E401058BFC0F1404000
:1038D000491058BFC1F140418142EFF30080704769
:1038E0004FF47F0C1CEAD0121EBF1CEAD11392EADF
:1038F0000C0F93EA0C0F00F0858090EA010F48BF8F
:1039000042F4807240F4000C41F400002CF07F413E
:1039100020F07F4000B58142A2EB03020FF2081CA9
:10392000ACEB504EC0F100009EF800E04FEA4E0EA6
:1039300000FB0EFC38BF49004FEA2C1C02F5FA02CE
:103940000CFB0EF34FEACE1E4FEA112C4FEAC121B9
:103950000EEB635E42EB22420EFB0CFC4FEA1C5363
:1039600000FB03114FEA112C4FEA01310EFB0CFC56
:103970004FEADC4C00FB0C11C14228BF09184CEB8C
:1039800003335DF804EB10EB410143EBC250B2F599
:103990007C0F38BF704729D512F0F00F1CBF00F123
:1039A000C04000F000407047008182838485868794
:1039B00088898B8C8D8E8F919293959697999A9CEE
:1039C0009D9FA0A2A3A5A7A8AAACAEB0B2B3B5B75D
:1039D000B9BCBEC0C2C5C7C9CCCED1D4D7D9DCDF33
:1039E000E2E6E9ECF0F3F7FAFE0000004FEA400CE3
:1039F0000CF1807CBCF17E4F28BF7047B0F1C04015
:103A000000F0F2B890EA010F0CEAD11348BF42F47B
:103A10008072624538BF634507D213F47F0F16D01A
:103A200080EA010000F00040704710B500F096F801
:103A3000097EFC3E00F005B880EA010000F000407D
:103A4000704780EA010000F0004000F0CDB812F4A9
:103A50007F0F04BF0248704780EA010000F0C4B83D
:103A60000000C07F50EA010C00F113801CF5000F2C
:103A700058BFBCF5000F01D48842704707D710F536
:103A8000000F58BF11F5000F15D4884270478942C6
:103A900070471CF5000F04D5BCF5000FF7D5814227
:103AA00070474FF0807C1CEB400F38BF1CEB410F80
:103AB00001D28142704710B500F050F892244900BD
:103AC0004FF000504FF08051FFF7FEBEB0FA80F388
:103AD00010FA03F2C3F19D030AD0D90501EB1220BD
:103AE000530638BF704700F1010008BF20F0010005
:103AF0007047000050EA010C00F113801CF5000F24
:103B000058BFBCF5000F01D48842704707D710F5A5
:103B1000000F58BF11F5000F15D488427047894235
:103B200070471CF5000F04D5BCF5000FF7D5814296
:103B300070474FF0807C1CEB400F38BF1CEB410FEF
:103B400001D28142704710B500F008F89224490074
:103B50004FF000504FF08051FFF7B6BE0EF1020E4D
:103B60002EF0030E5EF8044B244204D44FEA4102C7
:103B7000B2F17F4F11D84FEA4003B3F17F4F0CD819
:103B80000ED14FEAD07CB2F17F4F0CEB4C0C0CF114
:103B9000020C08BF4CEBD17C04E04FF0080C01E0B4
:103BA0004FEAD17C0CEB4C0324FA03F404F0070435
:103BB000B4F1040C06D20EEB840CBDE810404CF0BE
:103BC000010C6047DFE80CF0070802024FF00040EC
:103BD000A0F5800010BD0846420018BFD2F18072E7
:103BE00088BF00F0004010BDFF2141EAD050C00561
:103BF000704751EA000C00F113801CF5000F58BF0C
:103C0000BCF5000F01D48142704707D711F5000FB2
:103C100058BF10F5000F15D4814270478942704794
:103C20001CF5000F04D5BCF5000FF7D5884270478E
:103C30004FF0807C1CEB410F38BF1CEB400F01D2D2
:103C40008842704780EA010081EA000180EA0100B1
:103C5000FFF779BF90EA010F48BF81F000413FF5BF
:103C6000D8AD421A04D882F00042A0EB0200114401
:103C70004FEAD0524FF07F4C1CEA410FA2EBD153D8
:103C800018BF9CEA026F4AD04FF0004C4CEA00206B
:103C90004CEA012121FA03FCB0EB0C0C0FD412F01A
:103CA000FE0F36D05FEA4C001DD5001240EBC2502B
:103CB00038BF70471CF03F0F18BF70470BE0A2F1F0
:103CC00001025FEA1C2040EBC25038BF70471CF075
:103CD0007F0F18BF7047C3F12003994014BF401EE7
:103CE00020F00100704780084FEA122308BF704798
:103CF000B0FA80FCA2EB0C02CCF1280C60FA0CF0BC
:103D000093EA122F04BF00EBC25070474FEAC37012
:103D10007047130A5FEADC1008BF7047F6E79CEAB9
:103D2000026F04D010EA5C0F08BF0020704710B586
:103D3000FFF714FF40DFF63E81F00040704700C1FE
:103D4000814001C0804101C0804100C1814001C06B
:103D5000804100C1814000C1814001C0804101C05B
:103D6000804100C1814000C1814001C0804100C14B
:103D7000814001C0804101C0804100C1814001C03B
:103D8000804100C1814000C1814001C0804100C12B
:103D9000814001C0804101C0804100C1814000C11B
:103DA000814001C0804101C0804100C1814001C00B
:103DB000804100C1814000C1814001C0804101C0FB
:103DC000804100C1814000C1814001C0804100C1EB
:103DD000814001C0804101C0804100C1814000C1DB
:103DE000814001C0804101C0804100C1814001C0CB
:103DF000804100C1814000C1814001C0804100C1BB
:103E0000814001C0804101C0804100C1814001C0AA
:103E1000804100C1814000C1814001C0804101C09A
:103E2000804100C1814000C1814001C0804100C18A
:103E3000814001C0804101C0804100C1814000C07B
:103E4000C101C30302C2C60607C705C5C404CC0C22
:103E50000DCD0FCFCE0E0ACACB0BC90908C8D81892
:103E600019D91BDBDA1A1EDEDF1FDD1D1CDC14D4A2
:103E7000D515D71716D6D21213D311D1D010F030D2
:103E800031F133F3F23236F6F737F53534F43CFCE2
:103E9000FD3DFF3F3EFEFA3A3BFB39F9F83828E892
:103EA000E929EB2B2AEAEE2E2FEF2DEDEC2CE42462
:103EB00025E527E7E62622E2E323E12120E0A060D2
:103EC00061A163A3A26266A6A767A56564A46CACA2
:103ED000AD6DAF6F6EAEAA6A6BAB69A9A86878B812
:103EE000B979BB7B7ABABE7E7FBF7DBDBC7CB47422
:103EF00075B577B7B67672B2B373B17170B05090D2
:103F000091519353529296565797559594549C5C61
:103F10005D9D5F9F9E5E5A9A9B5B99595898884811
:103F200049894B8B8A4A4E8E8F4F8D4D4C8C4484E1
:103F30008545874746868242438341818040000011
:103F4000603F00080000002044000000FC00000862
:103F5000A43F00084400002054130000180100088A
:103F6000100300000000000000000000000000003E
:103F70000000000000000000000000000000000041
:103F80000000000000000000000000000000000031
:103F90000000000000000000000000000000000021
:043FA00000127A0091
:04000005080016E5F4
:00000001FF
